{
  "transactions": [
    {
      "hash": "0xc89bffe2ac1fa2f2ce1a10bba3520b3969cf8e1b1ade0c5f20f75c19e6135d70",
      "transactionType": "CREATE",
      "contractName": "Token",
      "contractAddress": "0x9c27f71ecba5acbf7ca4d715b581bd2b31314fa6",
      "function": null,
      "arguments": [
        "\"Test\"",
        "\"TT\"",
        "100"
      ],
      "transaction": {
        "from": "0x97e7f2b08a14e4c0a8dca87fbeb1f68b397c91df",
        "gas": "0x23796b",
        "value": "0x0",
        "input": "0x60806040523480156200001157600080fd5b5060405162000c1038038062000c108339810160408190526200003491620002c3565b82826003620000448382620003c7565b506004620000538282620003c7565b505050600081670de0b6b3a76400006200006e9190620004a9565b90506200007c338262000086565b50505050620004df565b6001600160a01b038216620000b65760405163ec442f0560e01b8152600060048201526024015b60405180910390fd5b620000c460008383620000c8565b5050565b6001600160a01b038316620000f7578060026000828254620000eb9190620004c9565b909155506200016b9050565b6001600160a01b038316600090815260208190526040902054818110156200014c5760405163391434e360e21b81526001600160a01b03851660048201526024810182905260448101839052606401620000ad565b6001600160a01b03841660009081526020819052604090209082900390555b6001600160a01b0382166200018957600280548290039055620001a8565b6001600160a01b03821660009081526020819052604090208054820190555b816001600160a01b0316836001600160a01b03167fddf252ad1be2c89b69c2b068fc378daa952ba7f163c4a11628f55a4df523b3ef83604051620001ee91815260200190565b60405180910390a3505050565b634e487b7160e01b600052604160045260246000fd5b600082601f8301126200022357600080fd5b81516001600160401b0380821115620002405762000240620001fb565b604051601f8301601f19908116603f011681019082821181831017156200026b576200026b620001fb565b81604052838152602092508660208588010111156200028957600080fd5b600091505b83821015620002ad57858201830151818301840152908201906200028e565b6000602085830101528094505050505092915050565b600080600060608486031215620002d957600080fd5b83516001600160401b0380821115620002f157600080fd5b620002ff8783880162000211565b945060208601519150808211156200031657600080fd5b50620003258682870162000211565b925050604084015190509250925092565b600181811c908216806200034b57607f821691505b6020821081036200036c57634e487b7160e01b600052602260045260246000fd5b50919050565b601f821115620003c2576000816000526020600020601f850160051c810160208610156200039d5750805b601f850160051c820191505b81811015620003be57828155600101620003a9565b5050505b505050565b81516001600160401b03811115620003e357620003e3620001fb565b620003fb81620003f4845462000336565b8462000372565b602080601f8311600181146200043357600084156200041a5750858301515b600019600386901b1c1916600185901b178555620003be565b600085815260208120601f198616915b82811015620004645788860151825594840194600190910190840162000443565b5085821015620004835787850151600019600388901b60f8161c191681555b5050505050600190811b01905550565b634e487b7160e01b600052601160045260246000fd5b8082028115828204841417620004c357620004c362000493565b92915050565b80820180821115620004c357620004c362000493565b61072180620004ef6000396000f3fe608060405234801561001057600080fd5b50600436106100935760003560e01c8063313ce56711610066578063313ce567146100fe57806370a082311461010d57806395d89b4114610136578063a9059cbb1461013e578063dd62ed3e1461015157600080fd5b806306fdde0314610098578063095ea7b3146100b657806318160ddd146100d957806323b872dd146100eb575b600080fd5b6100a061018a565b6040516100ad919061056a565b60405180910390f35b6100c96100c43660046105d5565b61021c565b60405190151581526020016100ad565b6002545b6040519081526020016100ad565b6100c96100f93660046105ff565b610236565b604051601281526020016100ad565b6100dd61011b36600461063b565b6001600160a01b031660009081526020819052604090205490565b6100a061025a565b6100c961014c3660046105d5565b610269565b6100dd61015f36600461065d565b6001600160a01b03918216600090815260016020908152604080832093909416825291909152205490565b60606003805461019990610690565b80601f01602080910402602001604051908101604052809291908181526020018280546101c590610690565b80156102125780601f106101e757610100808354040283529160200191610212565b820191906000526020600020905b8154815290600101906020018083116101f557829003601f168201915b5050505050905090565b60003361022a818585610277565b60019150505b92915050565b600033610244858285610289565b61024f85858561030c565b506001949350505050565b60606004805461019990610690565b60003361022a81858561030c565b610284838383600161036b565b505050565b6001600160a01b03838116600090815260016020908152604080832093861683529290522054600019811461030657818110156102f757604051637dc7a0d960e11b81526001600160a01b038416600482015260248101829052604481018390526064015b60405180910390fd5b6103068484848403600061036b565b50505050565b6001600160a01b03831661033657604051634b637e8f60e11b8152600060048201526024016102ee565b6001600160a01b0382166103605760405163ec442f0560e01b8152600060048201526024016102ee565b610284838383610440565b6001600160a01b0384166103955760405163e602df0560e01b8152600060048201526024016102ee565b6001600160a01b0383166103bf57604051634a1406b160e11b8152600060048201526024016102ee565b6001600160a01b038085166000908152600160209081526040808320938716835292905220829055801561030657826001600160a01b0316846001600160a01b03167f8c5be1e5ebec7d5bd14f71427d1e84f3dd0314c0f7b2291e5b200ac8c7c3b9258460405161043291815260200190565b60405180910390a350505050565b6001600160a01b03831661046b57806002600082825461046091906106ca565b909155506104dd9050565b6001600160a01b038316600090815260208190526040902054818110156104be5760405163391434e360e21b81526001600160a01b038516600482015260248101829052604481018390526064016102ee565b6001600160a01b03841660009081526020819052604090209082900390555b6001600160a01b0382166104f957600280548290039055610518565b6001600160a01b03821660009081526020819052604090208054820190555b816001600160a01b0316836001600160a01b03167fddf252ad1be2c89b69c2b068fc378daa952ba7f163c4a11628f55a4df523b3ef8360405161055d91815260200190565b60405180910390a3505050565b60006020808352835180602085015260005b818110156105985785810183015185820160400152820161057c565b506000604082860101526040601f19601f8301168501019250505092915050565b80356001600160a01b03811681146105d057600080fd5b919050565b600080604083850312156105e857600080fd5b6105f1836105b9565b946020939093013593505050565b60008060006060848603121561061457600080fd5b61061d846105b9565b925061062b602085016105b9565b9150604084013590509250925092565b60006020828403121561064d57600080fd5b610656826105b9565b9392505050565b6000806040838503121561067057600080fd5b610679836105b9565b9150610687602084016105b9565b90509250929050565b600181811c908216806106a457607f821691505b6020821081036106c457634e487b7160e01b600052602260045260246000fd5b50919050565b8082018082111561023057634e487b7160e01b600052601160045260246000fdfea2646970667358221220ae67f58f836bf02ffeb0e0e656f66d0d167ac221e7c6fdffc68fa736c121a57264736f6c63430008180033000000000000000000000000000000000000000000000000000000000000006000000000000000000000000000000000000000000000000000000000000000a000000000000000000000000000000000000000000000000000000000000000640000000000000000000000000000000000000000000000000000000000000004546573740000000000000000000000000000000000000000000000000000000000000000000000000000000000000000000000000000000000000000000000025454000000000000000000000000000000000000000000000000000000000000",
        "nonce": "0x68",
        "chainId": "0x66eee"
      },
      "additionalContracts": [],
      "isFixedGasLimit": false
    },
    {
      "hash": "0xfede1dac2d5323a64c8228cf1867b6085a69f20553ad9df4e3584efc40b4bead",
      "transactionType": "CREATE",
      "contractName": "Inheritance",
      "contractAddress": "0x3657753756911e0ac0b1434d12a909eaee801545",
      "function": null,
      "arguments": [
        "0x9C27F71ECbA5ACbF7Ca4D715b581bd2b31314Fa6"
      ],
      "transaction": {
        "from": "0x97e7f2b08a14e4c0a8dca87fbeb1f68b397c91df",
        "gas": "0x1bcb19",
        "value": "0x0",
        "input": "0x608060405234801561001057600080fd5b5060405161082338038061082383398101604081905261002f91610054565b600080546001600160a01b0319166001600160a01b0392909216919091179055610084565b60006020828403121561006657600080fd5b81516001600160a01b038116811461007d57600080fd5b9392505050565b610790806100936000396000f3fe608060405234801561001057600080fd5b506004361061004c5760003560e01c806310164c111461005157806314c74834146100665780636122fed514610079578063fc0c546a146100f2575b600080fd5b61006461005f3660046106ac565b61011d565b005b6100646100743660046106ac565b610415565b6100c06100873660046106d6565b600160208190526000918252604090912080549181015460028201546003909201546001600160a01b0393841693909116919060ff1684565b604080516001600160a01b03958616815294909316602085015291830152151560608201526080015b60405180910390f35b600054610105906001600160a01b031681565b6040516001600160a01b0390911681526020016100e9565b6001600160a01b0382166000908152600160205260409020600381015460ff1661018e5760405162461bcd60e51b815260206004820152601e60248201527f48656972206973206e6f742073657420666f722074686973206f776e6572000060448201526064015b60405180910390fd5b80546001600160a01b031633146101f55760405162461bcd60e51b815260206004820152602560248201527f4f6e6c79207468652064657369676e6174656420686569722063616e20776974604482015264686472617760d81b6064820152608401610185565b81816002015410156102495760405162461bcd60e51b815260206004820152601f60248201527f496e73756666696369656e7420696e6865726974616e636520616d6f756e74006044820152606401610185565b6000546040516370a0823160e01b81526001600160a01b038581166004830152849216906370a0823190602401602060405180830381865afa158015610293573d6000803e3d6000fd5b505050506040513d601f19601f820116820180604052508101906102b791906106f8565b10156102fc5760405162461bcd60e51b8152602060048201526014602482015273496e73756666696369656e742062616c616e636560601b6044820152606401610185565b6000546040516323b872dd60e01b81526001600160a01b03858116600483015233602483015260448201859052909116906323b872dd906064016020604051808303816000875af1158015610355573d6000803e3d6000fd5b505050506040513d601f19601f820116820180604052508101906103799190610711565b6103b75760405162461bcd60e51b815260206004820152600f60248201526e151c985b9cd9995c8819985a5b1959608a1b6044820152606401610185565b818160020160008282546103cb9190610733565b90915550506040518281526001600160a01b0384169033907f9d14789bcc2ea25ba0534a06f186b0a497242b6aa29f1b295b360775f34dc5089060200160405180910390a3505050565b3360009081526001602052604090206003015460ff16156104835760405162461bcd60e51b815260206004820152602260248201527f4865697220697320616c72656164792073657420666f722074686973206f776e60448201526132b960f11b6064820152608401610185565b6001600160a01b0382166104d05760405162461bcd60e51b8152602060048201526014602482015273496e76616c69642068656972206164647265737360601b6044820152606401610185565b600081116105205760405162461bcd60e51b815260206004820181905260248201527f416d6f756e74206d7573742062652067726561746572207468616e207a65726f6044820152606401610185565b600054604051636eb1769f60e11b815233600482015230602482015282916001600160a01b03169063dd62ed3e90604401602060405180830381865afa15801561056e573d6000803e3d6000fd5b505050506040513d601f19601f8201168201806040525081019061059291906106f8565b10156105d95760405162461bcd60e51b8152602060048201526016602482015275496e73756666696369656e7420616c6c6f77616e636560501b6044820152606401610185565b604080516080810182526001600160a01b0384811680835233602080850182815285870188815260016060880181815260008681528286528a9020985189546001600160a01b0319908116918a16919091178a5593519189018054909416919097161790915551600286015592516003909401805460ff19169415159490941790935592518481527ffb0c68f8fa07088319071ff48cd8c6285b78e4c86865e9f63fd1cd1d3da259fd910160405180910390a35050565b80356001600160a01b03811681146106a757600080fd5b919050565b600080604083850312156106bf57600080fd5b6106c883610690565b946020939093013593505050565b6000602082840312156106e857600080fd5b6106f182610690565b9392505050565b60006020828403121561070a57600080fd5b5051919050565b60006020828403121561072357600080fd5b815180151581146106f157600080fd5b8181038181111561075457634e487b7160e01b600052601160045260246000fd5b9291505056fea2646970667358221220eb53a5cc14b20393c85f11c07f0e065c803213d2264ec59ae7492a1dc6be8a9264736f6c634300081800330000000000000000000000009c27f71ecba5acbf7ca4d715b581bd2b31314fa6",
        "nonce": "0x69",
        "chainId": "0x66eee"
      },
      "additionalContracts": [],
      "isFixedGasLimit": false
    },
    {
      "hash": "0x6047d6a878f08c24b800adfed6aedb8bec7c1aa4cb1af9542eecd320860e714e",
      "transactionType": "CALL",
      "contractName": "Token",
      "contractAddress": "0x9c27f71ecba5acbf7ca4d715b581bd2b31314fa6",
      "function": "approve(address,uint256)",
      "arguments": [
        "0x3657753756911e0aC0b1434D12A909EAEe801545",
        "50000000000000000000"
      ],
      "transaction": {
        "from": "0x97e7f2b08a14e4c0a8dca87fbeb1f68b397c91df",
        "to": "0x9c27f71ecba5acbf7ca4d715b581bd2b31314fa6",
        "gas": "0x2f48b",
        "value": "0x0",
        "input": "0x095ea7b30000000000000000000000003657753756911e0ac0b1434d12a909eaee801545000000000000000000000000000000000000000000000002b5e3af16b1880000",
        "nonce": "0x6a",
        "chainId": "0x66eee"
      },
      "additionalContracts": [],
      "isFixedGasLimit": false
    },
    {
      "hash": "0x65c7820a90e0ae757c295bf308b516c17968753ea16078bd8f5171f9854dcbe5",
      "transactionType": "CALL",
      "contractName": "Inheritance",
      "contractAddress": "0x3657753756911e0ac0b1434d12a909eaee801545",
      "function": "setHeir(address,uint256)",
      "arguments": [
        "0x538D8F0c878ff754cbc08D80DdAdF08BF7f6bEC7",
        "50000000000000000000"
      ],
      "transaction": {
        "from": "0x97e7f2b08a14e4c0a8dca87fbeb1f68b397c91df",
        "to": "0x3657753756911e0ac0b1434d12a909eaee801545",
        "gas": "0x2f48b",
        "value": "0x0",
        "input": "0x14c74834000000000000000000000000538d8f0c878ff754cbc08d80ddadf08bf7f6bec7000000000000000000000000000000000000000000000002b5e3af16b1880000",
        "nonce": "0x6b",
        "chainId": "0x66eee"
      },
      "additionalContracts": [],
      "isFixedGasLimit": false
    },
    {
      "hash": "0xfa153a5cdf278452640183f1708c842466fd6c993f454e73361443979da51e06",
      "transactionType": "CALL",
      "contractName": "Inheritance",
      "contractAddress": "0x3657753756911e0ac0b1434d12a909eaee801545",
      "function": "claimInheritance(address,uint256)",
      "arguments": [
        "0x97E7f2B08a14e4C0A8Dca87fbEB1F68b397c91df",
        "50000000000000000000"
      ],
      "transaction": {
        "from": "0x538d8f0c878ff754cbc08d80ddadf08bf7f6bec7",
        "to": "0x3657753756911e0ac0b1434d12a909eaee801545",
        "gas": "0x2f48b",
        "value": "0x0",
        "input": "0x10164c1100000000000000000000000097e7f2b08a14e4c0a8dca87fbeb1f68b397c91df000000000000000000000000000000000000000000000002b5e3af16b1880000",
        "nonce": "0x10",
        "chainId": "0x66eee"
      },
      "additionalContracts": [],
      "isFixedGasLimit": false
    }
  ],
  "receipts": [
    {
      "status": "0x1",
      "cumulativeGasUsed": "0x190ed1",
      "logs": [
        {
          "address": "0x9c27f71ecba5acbf7ca4d715b581bd2b31314fa6",
          "topics": [
            "0xddf252ad1be2c89b69c2b068fc378daa952ba7f163c4a11628f55a4df523b3ef",
            "0x0000000000000000000000000000000000000000000000000000000000000000",
            "0x00000000000000000000000097e7f2b08a14e4c0a8dca87fbeb1f68b397c91df"
          ],
          "data": "0x0000000000000000000000000000000000000000000000056bc75e2d63100000",
          "blockHash": "0xbce3235d9c8119e302534dc2412b1c03d3210202a58962999bb8b86229c6e208",
          "blockNumber": "0x3c23155",
          "transactionHash": "0xc89bffe2ac1fa2f2ce1a10bba3520b3969cf8e1b1ade0c5f20f75c19e6135d70",
          "transactionIndex": "0x1",
          "logIndex": "0x0",
          "removed": false
        }
      ],
      "logsBloom": "0x00000000000000000000000004000000000000000000000000000000000000000000000000000000000000200000000000000000000000000000000001000000000000000000000000000008000000000000000000000000000000000000000000000000020000000000000000000800000000000000000000000010000000000000000000000000000000000000400000000000000000000000000000000000000000000000000000000000000000000000000200000000000000000000000000000002000000000000000000000001000000000000000000000000000020000000000000000000000000000000000000000000000000000000000000000000",
      "type": "0x2",
      "transactionHash": "0xc89bffe2ac1fa2f2ce1a10bba3520b3969cf8e1b1ade0c5f20f75c19e6135d70",
      "transactionIndex": "0x1",
      "blockHash": "0xbce3235d9c8119e302534dc2412b1c03d3210202a58962999bb8b86229c6e208",
      "blockNumber": "0x3c23155",
      "gasUsed": "0x190ed1",
      "effectiveGasPrice": "0x5f5e100",
      "from": "0x97e7f2b08a14e4c0a8dca87fbeb1f68b397c91df",
      "to": null,
      "contractAddress": "0x9c27f71ecba5acbf7ca4d715b581bd2b31314fa6",
      "gasUsedForL1": "0x1084dd",
      "l1BlockNumber": "0x5ffc38"
    },
    {
      "status": "0x1",
      "cumulativeGasUsed": "0x138fc6",
      "logs": [],
      "logsBloom": "0x00000000000000000000000000000000000000000000000000000000000000000000000000000000000000000000000000000000000000000000000000000000000000000000000000000000000000000000000000000000000000000000000000000000000000000000000000000000000000000000000000000000000000000000000000000000000000000000000000000000000000000000000000000000000000000000000000000000000000000000000000000000000000000000000000000000000000000000000000000000000000000000000000000000000000000000000000000000000000000000000000000000000000000000000000000000",
      "type": "0x2",
      "transactionHash": "0xfede1dac2d5323a64c8228cf1867b6085a69f20553ad9df4e3584efc40b4bead",
      "transactionIndex": "0x1",
      "blockHash": "0xbbf776a5b12da64e58250fb6ffdfc7098d07fe14ae23297c06f6a1b21e591748",
      "blockNumber": "0x3c2315b",
      "gasUsed": "0x138fc6",
      "effectiveGasPrice": "0x5f5e100",
      "from": "0x97e7f2b08a14e4c0a8dca87fbeb1f68b397c91df",
      "to": null,
      "contractAddress": "0x3657753756911e0ac0b1434d12a909eaee801545",
      "gasUsedForL1": "0xbfe2f",
      "l1BlockNumber": "0x5ffc39"
    },
    {
      "status": "0x1",
      "cumulativeGasUsed": "0x38247",
      "logs": [
        {
          "address": "0x9c27f71ecba5acbf7ca4d715b581bd2b31314fa6",
          "topics": [
            "0x8c5be1e5ebec7d5bd14f71427d1e84f3dd0314c0f7b2291e5b200ac8c7c3b925",
            "0x00000000000000000000000097e7f2b08a14e4c0a8dca87fbeb1f68b397c91df",
            "0x0000000000000000000000003657753756911e0ac0b1434d12a909eaee801545"
          ],
          "data": "0x000000000000000000000000000000000000000000000002b5e3af16b1880000",
          "blockHash": "0x3bd8b6ee5b758917152424516286a7d57ad6f2f7eec412885095e9e374262be3",
          "blockNumber": "0x3c23160",
          "transactionHash": "0x6047d6a878f08c24b800adfed6aedb8bec7c1aa4cb1af9542eecd320860e714e",
          "transactionIndex": "0x2",
          "logIndex": "0x0",
          "removed": false
        }
      ],
      "logsBloom": "0x00000000000000000000000004000000000000000000000000000000000000000000000000000000000000200000000000000000000000000000000001200000000000000000000000000000000000000000000000000000000000000000000000000000000000000000000000000000000000000000000000000000000000000000000000000800000000000000400000000000000000000000000000000000020000100000000000000000000000000000000200000000000000000000000000000000000000000000000000000001000000000000000000000000000000000010000000000000000000000000000000000000000000000000008000000000",
      "type": "0x2",
      "transactionHash": "0x6047d6a878f08c24b800adfed6aedb8bec7c1aa4cb1af9542eecd320860e714e",
      "transactionIndex": "0x2",
      "blockHash": "0x3bd8b6ee5b758917152424516286a7d57ad6f2f7eec412885095e9e374262be3",
      "blockNumber": "0x3c23160",
      "gasUsed": "0x233e7",
      "effectiveGasPrice": "0x5f5e100",
      "from": "0x97e7f2b08a14e4c0a8dca87fbeb1f68b397c91df",
      "to": "0x9c27f71ecba5acbf7ca4d715b581bd2b31314fa6",
      "contractAddress": null,
      "gasUsedForL1": "0x17eb8",
      "l1BlockNumber": "0x5ffc39"
    },
    {
      "status": "0x1",
      "cumulativeGasUsed": "0x355e9",
      "logs": [
        {
          "address": "0x3657753756911e0ac0b1434d12a909eaee801545",
          "topics": [
            "0xfb0c68f8fa07088319071ff48cd8c6285b78e4c86865e9f63fd1cd1d3da259fd",
            "0x00000000000000000000000097e7f2b08a14e4c0a8dca87fbeb1f68b397c91df",
            "0x000000000000000000000000538d8f0c878ff754cbc08d80ddadf08bf7f6bec7"
          ],
          "data": "0x000000000000000000000000000000000000000000000002b5e3af16b1880000",
          "blockHash": "0x01fb06f32a40e7e6deb27a7a218d52780aaaaa8378ec080507f37e5ca9df9200",
          "blockNumber": "0x3c23166",
          "transactionHash": "0x65c7820a90e0ae757c295bf308b516c17968753ea16078bd8f5171f9854dcbe5",
          "transactionIndex": "0x1",
          "logIndex": "0x0",
          "removed": false
        }
      ],
      "logsBloom": "0x00000000000000000000008000000000000000000000000000000000000800000000000000000000000000000000000040000000000000000000040001000000000000000000000000000000000000000000000000000000000000000000000000000000000000000000000002000000000000000000000000000000000000000000000000000000480000000000000000000000000000000000000000000000000000000000000000000000000000000000000200000000000000000000000000000000000000000000000000000001000000000000000000000000000000000000000000000000001000010000000000000000000000000000000000000000",
      "type": "0x2",
      "transactionHash": "0x65c7820a90e0ae757c295bf308b516c17968753ea16078bd8f5171f9854dcbe5",
      "transactionIndex": "0x1",
      "blockHash": "0x01fb06f32a40e7e6deb27a7a218d52780aaaaa8378ec080507f37e5ca9df9200",
      "blockNumber": "0x3c23166",
      "gasUsed": "0x355e9",
      "effectiveGasPrice": "0x5f5e100",
      "from": "0x97e7f2b08a14e4c0a8dca87fbeb1f68b397c91df",
      "to": "0x3657753756911e0ac0b1434d12a909eaee801545",
      "contractAddress": null,
      "gasUsedForL1": "0x17eb8",
      "l1BlockNumber": "0x5ffc39"
    },
    {
      "status": "0x1",
      "cumulativeGasUsed": "0x27ed5",
      "logs": [
        {
          "address": "0x9c27f71ecba5acbf7ca4d715b581bd2b31314fa6",
          "topics": [
            "0xddf252ad1be2c89b69c2b068fc378daa952ba7f163c4a11628f55a4df523b3ef",
            "0x00000000000000000000000097e7f2b08a14e4c0a8dca87fbeb1f68b397c91df",
            "0x000000000000000000000000538d8f0c878ff754cbc08d80ddadf08bf7f6bec7"
          ],
          "data": "0x000000000000000000000000000000000000000000000002b5e3af16b1880000",
          "blockHash": "0x63403d806c40fe53f9b50a7deea529e4e5ba0b0d2eaf95826795705cd3d45a9e",
          "blockNumber": "0x3c2316a",
          "transactionHash": "0xfa153a5cdf278452640183f1708c842466fd6c993f454e73361443979da51e06",
          "transactionIndex": "0x1",
          "logIndex": "0x0",
          "removed": false
        },
        {
          "address": "0x3657753756911e0ac0b1434d12a909eaee801545",
          "topics": [
            "0x9d14789bcc2ea25ba0534a06f186b0a497242b6aa29f1b295b360775f34dc508",
            "0x000000000000000000000000538d8f0c878ff754cbc08d80ddadf08bf7f6bec7",
            "0x00000000000000000000000097e7f2b08a14e4c0a8dca87fbeb1f68b397c91df"
          ],
          "data": "0x000000000000000000000000000000000000000000000002b5e3af16b1880000",
          "blockHash": "0x63403d806c40fe53f9b50a7deea529e4e5ba0b0d2eaf95826795705cd3d45a9e",
          "blockNumber": "0x3c2316a",
          "transactionHash": "0xfa153a5cdf278452640183f1708c842466fd6c993f454e73361443979da51e06",
          "transactionIndex": "0x1",
          "logIndex": "0x1",
          "removed": false
        }
      ],
      "logsBloom": "0x00000000000000000000000004000000000200000000000000000000000800000000000000000000000000200000000042000000000000000000000001000000000000000000000000000008000000000000000000100000000000000000000000000000000000000000000002000000000000000000000000000010000000000000000000000000400000000000400000000000000000000000000000000000000000000000000000000000000000000000000200000000000000000000000000000002000000000000000000000001000000000000000000000000000000000000000000000000001000010000000000000000000000000000000000000000",
      "type": "0x2",
      "transactionHash": "0xfa153a5cdf278452640183f1708c842466fd6c993f454e73361443979da51e06",
      "transactionIndex": "0x1",
      "blockHash": "0x63403d806c40fe53f9b50a7deea529e4e5ba0b0d2eaf95826795705cd3d45a9e",
      "blockNumber": "0x3c2316a",
      "gasUsed": "0x27ed5",
      "effectiveGasPrice": "0x5f5e100",
      "from": "0x538d8f0c878ff754cbc08d80ddadf08bf7f6bec7",
      "to": "0x3657753756911e0ac0b1434d12a909eaee801545",
      "contractAddress": null,
      "gasUsedForL1": "0x17eb8",
      "l1BlockNumber": "0x5ffc39"
    }
  ],
  "libraries": [],
  "pending": [],
  "returns": {},
  "timestamp": 1720711627,
  "chain": 421614,
  "commit": "ec2432c"
}