{
  "transactions": [
    {
      "hash": "0x9fa19abe30bbeeb03f16bd8e9a78390b30ce9c786c8a43feb95ba71ce6e17562",
      "transactionType": "CREATE",
      "contractName": "Token",
      "contractAddress": "0xc4663dbd41c804f270f09bb80cea871a08d24201",
      "function": null,
      "arguments": [
        "\"Test\"",
        "\"TT\"",
        "100"
      ],
      "transaction": {
        "from": "0x97e7f2b08a14e4c0a8dca87fbeb1f68b397c91df",
        "gas": "0x32115a",
        "value": "0x0",
        "input": "0x60806040523480156200001157600080fd5b5060405162000bd538038062000bd58339810160408190526200003491620002ac565b82826003620000448382620003b0565b506004620000538282620003b0565b5082915062000065905033826200006f565b50505050620004a4565b6001600160a01b0382166200009f5760405163ec442f0560e01b8152600060048201526024015b60405180910390fd5b620000ad60008383620000b1565b5050565b6001600160a01b038316620000e0578060026000828254620000d491906200047c565b90915550620001549050565b6001600160a01b03831660009081526020819052604090205481811015620001355760405163391434e360e21b81526001600160a01b0385166004820152602481018290526044810183905260640162000096565b6001600160a01b03841660009081526020819052604090209082900390555b6001600160a01b038216620001725760028054829003905562000191565b6001600160a01b03821660009081526020819052604090208054820190555b816001600160a01b0316836001600160a01b03167fddf252ad1be2c89b69c2b068fc378daa952ba7f163c4a11628f55a4df523b3ef83604051620001d791815260200190565b60405180910390a3505050565b634e487b7160e01b600052604160045260246000fd5b600082601f8301126200020c57600080fd5b81516001600160401b0380821115620002295762000229620001e4565b604051601f8301601f19908116603f01168101908282118183101715620002545762000254620001e4565b81604052838152602092508660208588010111156200027257600080fd5b600091505b8382101562000296578582018301518183018401529082019062000277565b6000602085830101528094505050505092915050565b600080600060608486031215620002c257600080fd5b83516001600160401b0380821115620002da57600080fd5b620002e887838801620001fa565b94506020860151915080821115620002ff57600080fd5b506200030e86828701620001fa565b925050604084015190509250925092565b600181811c908216806200033457607f821691505b6020821081036200035557634e487b7160e01b600052602260045260246000fd5b50919050565b601f821115620003ab576000816000526020600020601f850160051c81016020861015620003865750805b601f850160051c820191505b81811015620003a75782815560010162000392565b5050505b505050565b81516001600160401b03811115620003cc57620003cc620001e4565b620003e481620003dd84546200031f565b846200035b565b602080601f8311600181146200041c5760008415620004035750858301515b600019600386901b1c1916600185901b178555620003a7565b600085815260208120601f198616915b828110156200044d578886015182559484019460019091019084016200042c565b50858210156200046c5787850151600019600388901b60f8161c191681555b5050505050600190811b01905550565b808201808211156200049e57634e487b7160e01b600052601160045260246000fd5b92915050565b61072180620004b46000396000f3fe608060405234801561001057600080fd5b50600436106100935760003560e01c8063313ce56711610066578063313ce567146100fe57806370a082311461010d57806395d89b4114610136578063a9059cbb1461013e578063dd62ed3e1461015157600080fd5b806306fdde0314610098578063095ea7b3146100b657806318160ddd146100d957806323b872dd146100eb575b600080fd5b6100a061018a565b6040516100ad919061056a565b60405180910390f35b6100c96100c43660046105d5565b61021c565b60405190151581526020016100ad565b6002545b6040519081526020016100ad565b6100c96100f93660046105ff565b610236565b604051601281526020016100ad565b6100dd61011b36600461063b565b6001600160a01b031660009081526020819052604090205490565b6100a061025a565b6100c961014c3660046105d5565b610269565b6100dd61015f36600461065d565b6001600160a01b03918216600090815260016020908152604080832093909416825291909152205490565b60606003805461019990610690565b80601f01602080910402602001604051908101604052809291908181526020018280546101c590610690565b80156102125780601f106101e757610100808354040283529160200191610212565b820191906000526020600020905b8154815290600101906020018083116101f557829003601f168201915b5050505050905090565b60003361022a818585610277565b60019150505b92915050565b600033610244858285610289565b61024f85858561030c565b506001949350505050565b60606004805461019990610690565b60003361022a81858561030c565b610284838383600161036b565b505050565b6001600160a01b03838116600090815260016020908152604080832093861683529290522054600019811461030657818110156102f757604051637dc7a0d960e11b81526001600160a01b038416600482015260248101829052604481018390526064015b60405180910390fd5b6103068484848403600061036b565b50505050565b6001600160a01b03831661033657604051634b637e8f60e11b8152600060048201526024016102ee565b6001600160a01b0382166103605760405163ec442f0560e01b8152600060048201526024016102ee565b610284838383610440565b6001600160a01b0384166103955760405163e602df0560e01b8152600060048201526024016102ee565b6001600160a01b0383166103bf57604051634a1406b160e11b8152600060048201526024016102ee565b6001600160a01b038085166000908152600160209081526040808320938716835292905220829055801561030657826001600160a01b0316846001600160a01b03167f8c5be1e5ebec7d5bd14f71427d1e84f3dd0314c0f7b2291e5b200ac8c7c3b9258460405161043291815260200190565b60405180910390a350505050565b6001600160a01b03831661046b57806002600082825461046091906106ca565b909155506104dd9050565b6001600160a01b038316600090815260208190526040902054818110156104be5760405163391434e360e21b81526001600160a01b038516600482015260248101829052604481018390526064016102ee565b6001600160a01b03841660009081526020819052604090209082900390555b6001600160a01b0382166104f957600280548290039055610518565b6001600160a01b03821660009081526020819052604090208054820190555b816001600160a01b0316836001600160a01b03167fddf252ad1be2c89b69c2b068fc378daa952ba7f163c4a11628f55a4df523b3ef8360405161055d91815260200190565b60405180910390a3505050565b60006020808352835180602085015260005b818110156105985785810183015185820160400152820161057c565b506000604082860101526040601f19601f8301168501019250505092915050565b80356001600160a01b03811681146105d057600080fd5b919050565b600080604083850312156105e857600080fd5b6105f1836105b9565b946020939093013593505050565b60008060006060848603121561061457600080fd5b61061d846105b9565b925061062b602085016105b9565b9150604084013590509250925092565b60006020828403121561064d57600080fd5b610656826105b9565b9392505050565b6000806040838503121561067057600080fd5b610679836105b9565b9150610687602084016105b9565b90509250929050565b600181811c908216806106a457607f821691505b6020821081036106c457634e487b7160e01b600052602260045260246000fd5b50919050565b8082018082111561023057634e487b7160e01b600052601160045260246000fdfea26469706673582212204db78768637670a2d8487a216b3d87bffa79fd7ce5335b57807b5efcdc80077d64736f6c63430008180033000000000000000000000000000000000000000000000000000000000000006000000000000000000000000000000000000000000000000000000000000000a000000000000000000000000000000000000000000000000000000000000000640000000000000000000000000000000000000000000000000000000000000004546573740000000000000000000000000000000000000000000000000000000000000000000000000000000000000000000000000000000000000000000000025454000000000000000000000000000000000000000000000000000000000000",
        "nonce": "0x4c",
        "chainId": "0x66eee"
      },
      "additionalContracts": [],
      "isFixedGasLimit": false
    },
    {
      "hash": "0x1baa77bc588b9f5f2d83633a6260830b92f16a78dfbb271e6e327cd6e720e6bf",
      "transactionType": "CREATE",
      "contractName": "Inheritance",
      "contractAddress": "0xe6bc903fcd37c5d1b422a83b4eb1c7276a0fec95",
      "function": null,
      "arguments": [
        "0xc4663DBD41c804f270F09bb80CEa871a08D24201"
      ],
      "transaction": {
        "from": "0x97e7f2b08a14e4c0a8dca87fbeb1f68b397c91df",
        "gas": "0x2543c0",
        "value": "0x0",
        "input": "0x608060405234801561001057600080fd5b506040516107a33803806107a383398101604081905261002f91610054565b600080546001600160a01b0319166001600160a01b0392909216919091179055610084565b60006020828403121561006657600080fd5b81516001600160a01b038116811461007d57600080fd5b9392505050565b610710806100936000396000f3fe608060405234801561001057600080fd5b506004361061004c5760003560e01c806310164c111461005157806314c74834146100665780636122fed514610079578063fc0c546a146100f2575b600080fd5b61006461005f36600461062c565b61011d565b005b61006461007436600461062c565b6103d8565b6100c0610087366004610656565b600160208190526000918252604090912080549181015460028201546003909201546001600160a01b0393841693909116919060ff1684565b604080516001600160a01b03958616815294909316602085015291830152151560608201526080015b60405180910390f35b600054610105906001600160a01b031681565b6040516001600160a01b0390911681526020016100e9565b6001600160a01b0382166000908152600160205260409020600381015460ff1661018e5760405162461bcd60e51b815260206004820152601e60248201527f48656972206973206e6f742073657420666f722074686973206f776e6572000060448201526064015b60405180910390fd5b80546001600160a01b031633146101f55760405162461bcd60e51b815260206004820152602560248201527f4f6e6c79207468652064657369676e6174656420686569722063616e20776974604482015264686472617760d81b6064820152608401610185565b81816002015410156102495760405162461bcd60e51b815260206004820152601f60248201527f496e73756666696369656e7420696e6865726974616e636520616d6f756e74006044820152606401610185565b6000546040516370a0823160e01b81526001600160a01b038581166004830152849216906370a0823190602401602060405180830381865afa158015610293573d6000803e3d6000fd5b505050506040513d601f19601f820116820180604052508101906102b79190610678565b10156102fc5760405162461bcd60e51b8152602060048201526014602482015273496e73756666696369656e742062616c616e636560601b6044820152606401610185565b6000546040516323b872dd60e01b81526001600160a01b03858116600483015233602483015260448201859052909116906323b872dd906064016020604051808303816000875af1158015610355573d6000803e3d6000fd5b505050506040513d601f19601f820116820180604052508101906103799190610691565b508181600201600082825461038e91906106b3565b90915550506040518281526001600160a01b0384169033907f9d14789bcc2ea25ba0534a06f186b0a497242b6aa29f1b295b360775f34dc5089060200160405180910390a3505050565b3360009081526001602052604090206003015460ff16156104465760405162461bcd60e51b815260206004820152602260248201527f4865697220697320616c72656164792073657420666f722074686973206f776e60448201526132b960f11b6064820152608401610185565b6001600160a01b0382166104935760405162461bcd60e51b8152602060048201526014602482015273496e76616c69642068656972206164647265737360601b6044820152606401610185565b600081116104e35760405162461bcd60e51b815260206004820181905260248201527f416d6f756e74206d7573742062652067726561746572207468616e207a65726f6044820152606401610185565b60005460405163095ea7b360e01b8152306004820152602481018390526001600160a01b039091169063095ea7b3906044016020604051808303816000875af1158015610534573d6000803e3d6000fd5b505050506040513d601f19601f820116820180604052508101906105589190610691565b50604080516080810182526001600160a01b0384811680835233602080850182815285870188815260016060880181815260008681528286528a9020985189546001600160a01b0319908116918a16919091178a5593519189018054909416919097161790915551600286015592516003909401805460ff19169415159490941790935592518481527ffb0c68f8fa07088319071ff48cd8c6285b78e4c86865e9f63fd1cd1d3da259fd910160405180910390a35050565b80356001600160a01b038116811461062757600080fd5b919050565b6000806040838503121561063f57600080fd5b61064883610610565b946020939093013593505050565b60006020828403121561066857600080fd5b61067182610610565b9392505050565b60006020828403121561068a57600080fd5b5051919050565b6000602082840312156106a357600080fd5b8151801515811461067157600080fd5b818103818111156106d457634e487b7160e01b600052601160045260246000fd5b9291505056fea2646970667358221220b1847058b4f1430279889dd3a6b62d3606fc154f73e0c0cc39da3149a8e8bace64736f6c63430008180033000000000000000000000000c4663dbd41c804f270f09bb80cea871a08d24201",
        "nonce": "0x4d",
        "chainId": "0x66eee"
      },
      "additionalContracts": [],
      "isFixedGasLimit": false
    },
    {
      "hash": "0x62ef16fd6b11f42179eb8f81fed49c19bfc5c38c9e13a5a2b603be86a4aa8a53",
      "transactionType": "CALL",
      "contractName": "Token",
      "contractAddress": "0xc4663dbd41c804f270f09bb80cea871a08d24201",
      "function": "approve(address,uint256)",
      "arguments": [
        "0xe6bc903fCd37c5d1B422A83B4Eb1C7276A0fEc95",
        "50"
      ],
      "transaction": {
        "from": "0x97e7f2b08a14e4c0a8dca87fbeb1f68b397c91df",
        "to": "0xc4663dbd41c804f270f09bb80cea871a08d24201",
        "gas": "0x4912e",
        "value": "0x0",
        "input": "0x095ea7b3000000000000000000000000e6bc903fcd37c5d1b422a83b4eb1c7276a0fec950000000000000000000000000000000000000000000000000000000000000032",
        "nonce": "0x4e",
        "chainId": "0x66eee"
      },
      "additionalContracts": [],
      "isFixedGasLimit": false
    },
    {
      "hash": "0xbfd698c89e0a74f0aa9ceca8083ba94b3f8815214c1e5bb8ec196660edc66a08",
      "transactionType": "CALL",
      "contractName": "Inheritance",
      "contractAddress": "0xe6bc903fcd37c5d1b422a83b4eb1c7276a0fec95",
      "function": "setHeir(address,uint256)",
      "arguments": [
        "0x538D8F0c878ff754cbc08D80DdAdF08BF7f6bEC7",
        "50"
      ],
      "transaction": {
        "from": "0x97e7f2b08a14e4c0a8dca87fbeb1f68b397c91df",
        "to": "0xe6bc903fcd37c5d1b422a83b4eb1c7276a0fec95",
        "gas": "0x4912e",
        "value": "0x0",
        "input": "0x14c74834000000000000000000000000538d8f0c878ff754cbc08d80ddadf08bf7f6bec70000000000000000000000000000000000000000000000000000000000000032",
        "nonce": "0x4f",
        "chainId": "0x66eee"
      },
      "additionalContracts": [],
      "isFixedGasLimit": false
    }
  ],
  "receipts": [
    {
      "status": "0x1",
      "cumulativeGasUsed": "0x1f70a5",
      "logs": [
        {
          "address": "0xc4663dbd41c804f270f09bb80cea871a08d24201",
          "topics": [
            "0xddf252ad1be2c89b69c2b068fc378daa952ba7f163c4a11628f55a4df523b3ef",
            "0x0000000000000000000000000000000000000000000000000000000000000000",
            "0x00000000000000000000000097e7f2b08a14e4c0a8dca87fbeb1f68b397c91df"
          ],
          "data": "0x0000000000000000000000000000000000000000000000000000000000000064",
          "blockHash": "0xd265a8b351c2df3cefbf36c99320ddf71a38703d55363b23b6e3bc6145eef419",
          "blockNumber": "0x3bdd4ba",
          "transactionHash": "0x9fa19abe30bbeeb03f16bd8e9a78390b30ce9c786c8a43feb95ba71ce6e17562",
          "transactionIndex": "0x1",
          "logIndex": "0x0",
          "removed": false
        }
      ],
      "logsBloom": "0x00000000000000000000000000000000000000000000000000000000000000000000000000000000000000000000000000000000000000000000000001000000000000000000000000000008000000008000000000000000000000000000000000000000020000000000000000000800000000000000000000000410000000000000000000000000000000000000000000000000000000000000000000000000000000000000000000000000000000000000000200000000000000000000000000000002000000000000000000000001000000000000000000000000000020000000000000000000080000000000000000000000000000000000000000000000",
      "type": "0x2",
      "transactionHash": "0x9fa19abe30bbeeb03f16bd8e9a78390b30ce9c786c8a43feb95ba71ce6e17562",
      "transactionIndex": "0x1",
      "blockHash": "0xd265a8b351c2df3cefbf36c99320ddf71a38703d55363b23b6e3bc6145eef419",
      "blockNumber": "0x3bdd4ba",
      "gasUsed": "0x1f70a5",
      "effectiveGasPrice": "0x6e30020",
      "from": "0x97e7f2b08a14e4c0a8dca87fbeb1f68b397c91df",
      "to": null,
      "contractAddress": "0xc4663dbd41c804f270f09bb80cea871a08d24201",
      "gasUsedForL1": "0x16ea41",
      "l1BlockNumber": "0x5fe291"
    },
    {
      "status": "0x1",
      "cumulativeGasUsed": "0x1745cb",
      "logs": [],
      "logsBloom": "0x00000000000000000000000000000000000000000000000000000000000000000000000000000000000000000000000000000000000000000000000000000000000000000000000000000000000000000000000000000000000000000000000000000000000000000000000000000000000000000000000000000000000000000000000000000000000000000000000000000000000000000000000000000000000000000000000000000000000000000000000000000000000000000000000000000000000000000000000000000000000000000000000000000000000000000000000000000000000000000000000000000000000000000000000000000000",
      "type": "0x2",
      "transactionHash": "0x1baa77bc588b9f5f2d83633a6260830b92f16a78dfbb271e6e327cd6e720e6bf",
      "transactionIndex": "0x1",
      "blockHash": "0x24c08bd63c94eda2d33d5ab6f5e12d1254f2a78bd94f67b28c7b3427c0f9a2e3",
      "blockNumber": "0x3bdd4bd",
      "gasUsed": "0x1745cb",
      "effectiveGasPrice": "0x6e52300",
      "from": "0x97e7f2b08a14e4c0a8dca87fbeb1f68b397c91df",
      "to": null,
      "contractAddress": "0xe6bc903fcd37c5d1b422a83b4eb1c7276a0fec95",
      "gasUsedForL1": "0x102061",
      "l1BlockNumber": "0x5fe291"
    },
    {
      "status": "0x1",
      "cumulativeGasUsed": "0x20de20",
      "logs": [
        {
          "address": "0xc4663dbd41c804f270f09bb80cea871a08d24201",
          "topics": [
            "0x8c5be1e5ebec7d5bd14f71427d1e84f3dd0314c0f7b2291e5b200ac8c7c3b925",
            "0x00000000000000000000000097e7f2b08a14e4c0a8dca87fbeb1f68b397c91df",
            "0x000000000000000000000000e6bc903fcd37c5d1b422a83b4eb1c7276a0fec95"
          ],
          "data": "0x0000000000000000000000000000000000000000000000000000000000000032",
          "blockHash": "0xe81852dbe869669d80127be821b607c80e7df84913875565b5d8cd4d662f0764",
          "blockNumber": "0x3bdd4c2",
          "transactionHash": "0x62ef16fd6b11f42179eb8f81fed49c19bfc5c38c9e13a5a2b603be86a4aa8a53",
          "transactionIndex": "0x5",
          "logIndex": "0xe",
          "removed": false
        }
      ],
      "logsBloom": "0x00000000000000000000000000000000000000000000000000000000000000000000000000000000000000000000000000000000000000000000000001200000000000000000000000000000000000008000000000000000000000000800000000000000000000000000000000000000000000000000000000000400000000000000000000000000000000000000000000000000000000000000000000000000020000000000000000000000000000000000000200000000000000000000000000000000000000000000010000000001000000000000000000000000000000000010000000040000080000000000000000000000000000000000000000000000",
      "type": "0x2",
      "transactionHash": "0x62ef16fd6b11f42179eb8f81fed49c19bfc5c38c9e13a5a2b603be86a4aa8a53",
      "transactionIndex": "0x5",
      "blockHash": "0xe81852dbe869669d80127be821b607c80e7df84913875565b5d8cd4d662f0764",
      "blockNumber": "0x3bdd4c2",
      "gasUsed": "0x2da68",
      "effectiveGasPrice": "0x6c4a2b0",
      "from": "0x97e7f2b08a14e4c0a8dca87fbeb1f68b397c91df",
      "to": "0xc4663dbd41c804f270f09bb80cea871a08d24201",
      "contractAddress": null,
      "gasUsedForL1": "0x22581",
      "l1BlockNumber": "0x5fe293"
    },
    {
      "status": "0x1",
      "cumulativeGasUsed": "0x455e6",
      "logs": [
        {
          "address": "0xc4663dbd41c804f270f09bb80cea871a08d24201",
          "topics": [
            "0x8c5be1e5ebec7d5bd14f71427d1e84f3dd0314c0f7b2291e5b200ac8c7c3b925",
            "0x000000000000000000000000e6bc903fcd37c5d1b422a83b4eb1c7276a0fec95",
            "0x000000000000000000000000e6bc903fcd37c5d1b422a83b4eb1c7276a0fec95"
          ],
          "data": "0x0000000000000000000000000000000000000000000000000000000000000032",
          "blockHash": "0x27a872f441154d512c94cb955a85a7107b1dad39fba4987879ca59159f747fea",
          "blockNumber": "0x3bdd4c6",
          "transactionHash": "0xbfd698c89e0a74f0aa9ceca8083ba94b3f8815214c1e5bb8ec196660edc66a08",
          "transactionIndex": "0x1",
          "logIndex": "0x0",
          "removed": false
        },
        {
          "address": "0xe6bc903fcd37c5d1b422a83b4eb1c7276a0fec95",
          "topics": [
            "0xfb0c68f8fa07088319071ff48cd8c6285b78e4c86865e9f63fd1cd1d3da259fd",
            "0x00000000000000000000000097e7f2b08a14e4c0a8dca87fbeb1f68b397c91df",
            "0x000000000000000000000000538d8f0c878ff754cbc08d80ddadf08bf7f6bec7"
          ],
          "data": "0x0000000000000000000000000000000000000000000000000000000000000032",
          "blockHash": "0x27a872f441154d512c94cb955a85a7107b1dad39fba4987879ca59159f747fea",
          "blockNumber": "0x3bdd4c6",
          "transactionHash": "0xbfd698c89e0a74f0aa9ceca8083ba94b3f8815214c1e5bb8ec196660edc66a08",
          "transactionIndex": "0x1",
          "logIndex": "0x1",
          "removed": false
        }
      ],
      "logsBloom": "0x00000000000000000000008000000000000000000000000000000000000800000000000000000000000000000000000040000000000000000000040001200000000000000000000000000000000000008000000000000000000000000800000000000000000000000000000000000000000000000000000000000400000000000000000000000000080000000004000000000000000000000000000000000000020000000000000000000000000000000000000200000000000000000000002000000000000000000000010000000001000000000000000000000000000000000010000000040000080800010000000000000000000000000000000000000000",
      "type": "0x2",
      "transactionHash": "0xbfd698c89e0a74f0aa9ceca8083ba94b3f8815214c1e5bb8ec196660edc66a08",
      "transactionIndex": "0x1",
      "blockHash": "0x27a872f441154d512c94cb955a85a7107b1dad39fba4987879ca59159f747fea",
      "blockNumber": "0x3bdd4c6",
      "gasUsed": "0x455e6",
      "effectiveGasPrice": "0x6b8e2e0",
      "from": "0x97e7f2b08a14e4c0a8dca87fbeb1f68b397c91df",
      "to": "0xe6bc903fcd37c5d1b422a83b4eb1c7276a0fec95",
      "contractAddress": null,
      "gasUsedForL1": "0x22941",
      "l1BlockNumber": "0x5fe293"
    }
  ],
  "libraries": [],
  "pending": [],
  "returns": {},
  "timestamp": 1720625108,
  "chain": 421614,
  "commit": "34018ed"
}